:020000040800F2
:10000000500400209D0100087F0B000895070008A0
:1000100015080008E50100080918000800000000A4
:10002000000000000000000000000000110D0008AA
:100030009102000800000000090C0008E50E00080D
:10004000B7010008B7010008B7010008B7010008B0
:10005000B7010008B7010008B7010008B7010008A0
:10006000B7010008B7010008B7010008B701000890
:10007000B7010008B7010008B7010008B701000880
:10008000B7010008B7010008B7010008B701000870
:10009000B7010008B7010008B7010008B701000860
:1000A000B7010008B7010008B7010008B701000850
:1000B000B7010008B7010008790F0008B701000870
:1000C000B7010008B7010008B7010008B701000830
:1000D000B7010008B7010008B70100083114000893
:1000E00095020008B7010008B7010008B701000831
:1000F000B7010008B7010008B7010008B701000800
:10010000B7010008B7010008B7010008B7010008EF
:10011000BD120008B7010008B7010008B7010008C8
:10012000B7010008B7010008B7010008B7010008CF
:10013000B7010008B7010008B7010008B7010008BF
:10014000B7010008B7010008B7010008B7010008AF
:10015000B7010008B7010008B7010008B70100089F
:10016000B7010008B7010008B7010008B70100088F
:10017000B7010008B7010008B7010008B70100087F
:10018000B7010008B7010008DFF80CD000F018F83C
:1001900000480047C918000850040020064880475E
:1001A00006480047FEE7FEE7FEE7FEE7FEE7FEE75C
:1001B000FEE7FEE7FEE7FEE7190F000889010008E9
:1001C000064C074D06E0E06840F0010394E80700A4
:1001D00098471034AC42F6D3FFF7DAFF84190008D1
:1001E000A4190008FEE710B504462146002000F0DF
:1001F000CDFB2146012000F0C9FB604201B20C4654
:10020000022000F0C3FB2146BDE81040032000F0AF
:10021000BDBB70B50546694209B20C46002000F02E
:10022000B5FB2146012000F0B1FB2946022000F079
:10023000ADFB2946BDE87040032000F0A7BB10B518
:10024000404201B20C46002000F0A0FB21460120F4
:1002500000F09CFB2146022000F098FB2146BDE8FF
:100260001040032000F092BB10B504462146002048
:1002700000F08CFB2146012000F088FB2146022083
:1002800000F084FB2146BDE81040032000F07EBB57
:100290007047000070B54FF4806000F033F800281C
:1002A00023D0022001F0F0FA4FF480610F4800F0F3
:1002B000D7F80F4A0F4C01280BD0104600F081FEF2
:1002C000E0600220A070BDE870404FF4806000F054
:1002D00013B815460021284600F0AEFF284600F06E
:1002E00070FEA0600120A070EDE770BD000C024020
:1002F000000800403C0000200149086070470000F1
:10030000143C014001460020024A12680A4200D013
:1003100001207047143C0140214A83790168002B79
:1003200034D0136823EA01011160111D0A680368C3
:100330009A430A60017901F1804101F59E310A6812
:1003400003681A430A60174B1968026891431960E1
:100350001A1D1168D0F800C021EA0C011160417922
:10036000102908D001F1804101F59E310A6800682A
:100370001043086070471968D0F800C041EA0C01CA
:10038000196011680068084310607047007900F137
:10039000804000F59E30026822EA0101016070474A
:1003A000003C0140083C01402DE9F00100220126FB
:1003B000032706FA02FC0B6803EA0C03634538D1F5
:1003C0000568530007FA03F4A54305600D79D0F8DA
:1003D00000809D4045EA080505600D79012D01D09A
:1003E000022D17D18568A54385604D79D0F8088026
:1003F0009D4045EA08058560456825EA0C0CC0F873
:1004000004C0D0F804C08D799540ADB24CEA050C1B
:10041000C0F804C0D0F80CC02CEA040CC0F80CC022
:1004200091F807C00CFA03F3D0F80CC043EA0C03B0
:10043000C360521C102ABCD3BDE8F00170474B07C3
:10044000DB0E9A40C90800EB8100016A4FF00F0CE7
:100450000CFA03F399430162016A11430162704788
:100460000246002012690A4200D0012070474183F1
:10047000704701837047000070B510EE101A4C4AA7
:1004800001254C48914218DAB5EEC00AF1EE10FA97
:1004900013DD05700078012834D100F05DFB4FF4C6
:1004A000FA6001F0C1F94FF41670FFF79CFEBDE849
:1004B00070404FF4FA7001F0B7B9002606704FF49F
:1004C000FA70FFF7A6FE4FF4FA7001F0ADF93A4C5E
:1004D0003A486168B9B1012923D0022930D00329F3
:1004E0003DD0042954D005290CD14FF40051FFF719
:1004F000C0FF4FF4FA70FFF7A2FE4FF4FA7001F05C
:1005000093F9666070BD4FF40051FFF7B2FF4FF4EE
:10051000FA70FFF77EFE4FF4FA7001F085F965601E
:1005200070BD4FF40051FFF7A2FF4FF4FA70FFF7D0
:1005300086FE4FF4FA7001F077F90220606070BD1A
:100540004FF40051FFF795FF4FF4FA70FFF761FE8B
:100550004FF4FA7001F068F90320606070BD4FF449
:1005600000510546FFF783FF4FF4FA70FFF77CFE5A
:100570004FF4FA7001F058F94FF400512846FFF794
:1005800078FF4FF4FA7001F04FF90420606070BDFD
:100590004FF40051FFF76BFF4FF4FA70FFF739FE8D
:1005A0004FF4FA7001F040F90520606070BD000062
:1005B0000000C8413D00002010000020000402405F
:1005C00070B5244C00262670244D9FED230A85ED3E
:1005D000000A00F0CDF84FF0E02081692278022A6D
:1005E00009D01F4A8369CB1A934201D9267002E0D1
:1005F0002378022BF6D12078022827D1194A1068D7
:1006000019490B68C01A126809688A4202D24FF66B
:10061000FF71084400EE100ADFED140AB8EE400A3C
:1006200020EE200A85ED000A95ED000AB5EEC00A1D
:10063000F1EE10FA06D995ED000A0D4910EE100AF8
:10064000884203DD9FED0B0A85ED000A95ED000A57
:1006500070BD00003E0000200000000010000020DF
:1006600080E74C00480000204400002096438B3C6B
:100670000000C8430000C8432DE9F04188B00121C3
:10068000082000F0C3FA0121880300F0DBFA012101
:10069000042000F0C9FA4FF40060069001248DF8A0
:1006A0001C4003208DF81D0000258DF81E500226E9
:1006B0008DF81F60DFF8B08006A94046FFF774FE92
:1006C000E1024046FFF7D3FEA70206978DF81C50C3
:1006D0008DF81F6006A94046FFF766FE0A21032039
:1006E00000F017FB04978DF8145010208DF81500BA
:1006F0008DF8164004A8FFF70FFE4FF4A06000F03D
:1007000079FA28208DF80C008DF80D408DF80E40F8
:100710008DF80F4003A800F033FA4FF6FF700190F8
:100720005320ADF80000ADF80850ADF802500F4D61
:100730006946284600F082FD1E218DF80C108DF8C8
:100740000D408DF80E608DF80F4003A800F018FAE8
:1007500001221146284600F041FC0121284600F004
:1007600024FC08B0BDE8F081000C02400008004005
:1007700010B5074C4FF400612046FFF77AFE0A20BF
:1007800001F082F8E1142046BDE81040FFF76FBE8B
:10079000000C0240FEE7000070B500240A4D4FF443
:1007A00000512846FFF765FE962001F03DF84FF412
:1007B00000512846FFF75BFE962001F035F8601CDB
:1007C000C4B2032CEBD370BD0004024010B582B05C
:1007D0000121022000F01AFA4FF40050009001208D
:1007E0008DF8040003208DF8050000208DF8060028
:1007F00002208DF80700064C69462046FFF7D4FD1D
:100800004FF400512046FFF732FE02B010BD000049
:1008100000040240FEE7000010B582B001211F2055
:1008200000F0F4F91020009001208DF8040003215D
:100830008DF8051000218DF806108DF80700134C77
:1008400069462046FFF7B0FD10212046FFF711FE54
:10085000302000900E4C69462046FFF7A5FD0C2184
:10086000009169462046FFF79FFD4FF440500090ED
:10087000084C69462046FFF797FD4FF44041009130
:1008800069462046FFF790FD02B010BD0008024007
:1008900000100240000C0240F0B58BB00121022094
:1008A00000F0C2F90121032000F0B0F9C020089047
:1008B00002208DF8240003268DF8256000248DF891
:1008C000264001258DF827502D4F08A93846FFF7FF
:1008D0006BFD022206213846FFF7B1FD02220721F7
:1008E0003846FFF7ACFD0896264E08A93046FFF7BC
:1008F0005BFD022200213046FFF7A1FD022201210B
:100900003046FFF79CFD40F2E73006905320ADF8EB
:100910001400ADF81C40ADF816401B4E05A930463A
:1009200000F08CFC6021ADF80010ADF8025002948C
:10093000ADF80C406946304600F05BFB08213046BC
:1009400000F08FFB6946304600F091FB08213046ED
:1009500000F0D4FB6946304600F0DAFB082130464F
:1009600000F01CFC6946304600F01EFC08213046B1
:1009700000F050FC0121304600F017FB0BB0F0BD39
:100980000000024000040240000400402DE9F04154
:100990000446B1F57A7F01DD4FF47A7111F57A7F63
:1009A00000DA6949694D6A4E6A4F00290BD076DD3D
:1009B0001FFA81F8002C49D0012C50D0022C57D0BE
:1009C000032C4BD15FE0ACB1012C21D0022C2DD0F7
:1009D000032C6FD14FF480413846FFF748FD4FF4A8
:1009E00000413846FFF743FD3046BDE8F0410021A5
:1009F00000F020BC10212846FFF739FD20212846B1
:100A0000FFF735FD3046BDE8F041002100F00CBC99
:100A100008212846FFF72BFD04212846FFF727FD74
:100A20003046BDE8F041002100F000BC4FF4805199
:100A30003846FFF71CFD4FF400513846FFF717FD0D
:100A40003046BDE8F041002100F0F2BB10212846FD
:100A5000FFF70FFD20212846FFF709FD52E008218E
:100A60002846FFF706FD04212846FFF700FD49E070
:100A70004FF480513846FFF7FCFC4FF400513846E4
:100A8000FFF7F5FC3EE04FF480413846FFF7F1FCFC
:100A90004FF400413846FFF7EAFC33E0FFE74842F5
:100AA0001FFA80F83CB1012C0ED0022C15D0032C7B
:100AB00028D11DE045E010212846FFF7D8FC202171
:100AC0002846FFF7D6FC1DE008212846FFF7CFFC9B
:100AD00004212846FFF7CDFC14E04FF4805138463E
:100AE000FFF7C5FC4FF400513846FFF7C2FC09E0A0
:100AF0004FF480413846FFF7BAFC4FF400413846C6
:100B0000FFF7B7FC5CB1012C0FD0022C13D0032CE3
:100B100017D141463046BDE8F04100F08BBB41465D
:100B20003046BDE8F04100F07FBB41463046BDE8AD
:100B3000F04100F07BBB41463046BDE8F04100F09B
:100B400077BBBDE8F081000018FCFFFF00100240F9
:100B500000040040000C024010B500210846FFF7D9
:100B600015FF00210120FFF711FF00210220FFF7F0
:100B70000DFF0021BDE810400320FFF707BF7047BD
:100B800010B44FF00F0CC27801240178002A23D052
:100B9000174A126802F4E062C2F5E062C2F307226B
:100BA000C2F104032CFA02FC42789A40837803EAEB
:100BB0000C031A43120101F1E02181F800240078AE
:100BC00000F01F0104FA01F14009800000F1E0206B
:100BD000C0F8001110BC704701F01F0004FA00F0CB
:100BE0004909890001F1E021C1F8800110BC70477A
:100BF0000CED00E0034940F0FD7040F080600860BB
:100C0000704700000CED00E070470000054A002925
:100C100003D01168084310607047116821EA000092
:100C20001060704730380240054A002903D011682F
:100C3000084310607047116821EA00001060704797
:100C400040380240054A002903D01168084310606B
:100C50007047116821EA0000106070474438024074
:100C600030B4DFF89CC0DCF8001001F00C01254D19
:100C7000002923D06C10042922D0082922D0056035
:100C8000DCF8001001F0F00109091F4B595C026803
:100C900022FA01F14160DCF8002002F4E052920AED
:100CA0009A5C21FA02F28260DCF8002002F46042D1
:100CB000520B9A5CD140C16030BC70470560DFE7E1
:100CC0000460DDE7114A1168C1F38053116801F037
:100CD0003F0133B1B4FBF1F11368C3F388135943F7
:100CE00005E0B5FBF1F11368C3F3881359431268AB
:100CF000C2F30142521C5200B1FBF2F10160BFE7A6
:100D0000083802400024F4000000002004380240AB
:100D100070478A07120F0F23934021F0030101F15E
:100D2000804101F59831D1F808C82CEA0303C1F8D5
:100D30000838D1F8083890401843C1F808087047BF
:100D400082B00022019200922749086840F4803066
:100D50000860086800F4003000900198401C019081
:100D6000009818B90198B0F5A04FF2D1086810F4B6
:100D7000003F02D00120009000E00092009801287E
:100D800030D11A48026842F0805202601848026866
:100D900042F440420260174802680260026842F46E
:100DA00000420260026842F4A0520260021F124B2D
:100DB00013600A6842F080720A600A6812F0007FCD
:100DC000FBD00E4A40F205711160016821F0030169
:100DD0000160016841F002010160016801F00C014D
:100DE0000829FAD102B0704700380240403802406A
:100DF000007000400838024008544007003C0240A0
:100E0000F0B589B001210420FFF700FF0121C804DB
:100E1000FFF70AFF01268DF81C6000248DF81E40A4
:100E20003003069003258DF81D50254F06A938463E
:100E3000FFF7BAFA31033846FFF71BFB02208DF8A3
:100E40001C008DF81E40A80206908DF81D5006A9C2
:100E50003846FFF7A9FA4FF416500290ADF8144047
:100E60000C20ADF81200ADF81040ADF80E40ADF812
:100E70000C40144D02A9284600F056FC012240F215
:100E80002551284600F033FC34208DF804008DF8FD
:100E900007608DF805408DF8064001A8FFF770FE49
:100EA0000121284600F0ECFB08220A213846FFF712
:100EB000C6FA08220B213846FFF7C1FA09B0F0BD87
:100EC00000080240004C00404FF0E021042804D00C
:100ED000086920F0040008617047086940F00400C8
:100EE000086170477047000010B56FF00400FFF70D
:100EF000EBFF064806490068B0FBF1F005490860C1
:100F00004FF47A725043486010BD00001C0000206E
:100F100000127A003000002010B51148016841F439
:100F2000700101600F48016841F0010101600E4A43
:100F300000211160026822F4102222F08072026007
:100F4000031D0A4A1A60026822F4802202600848DF
:100F50000160FFF7F5FE07494FF00060086010BD23
:100F600088ED00E0003802400838024010300024CC
:100F70000C38024008ED00E010B5084C0121204675
:100F800000F021F8002808D005490020887020468C
:100F9000BDE81040012100F005B810BD0008004078
:100FA0003C000020C94301827047002904D0018819
:100FB00041F0010101807047018821F001010180A9
:100FC0007047406A70470022038A0B4080890840BE
:100FD000002B01D000B1012210467047002A03D037
:100FE0008289114381817047828922EA01018181CE
:100FF000704710B4028C22F001020284028C8388B4
:10100000B0F818C02CF0700C2CF0030C0C8844EADB
:101010000C0C22F002028C8922434C882243A0F15E
:101020008044B4F5803404D0A0F18044B4F5823417
:101030000FD122F00802CC89224322F004028C88CE
:10104000224323F4807323F400730C8A23434C8AD5
:1010500023438380A0F818C089684163028410BCD0
:101060007047028B22F0080211430183704730B4AD
:10107000028C22F010020284028C8388B0F818C01F
:101080002CF4E04C2CF440740D884FF6FF7C0CEAF5
:1010900005252C4322F020028D890CEA05152A43F0
:1010A0004D880CEA05152A43A0F18045B5F5803539
:1010B00004D0A0F18045B5F5823518D122F0800228
:1010C000CD890CEA05152A4322F040028D880CEAEE
:1010D00005152A4323F4806323F400630D8A0CEA88
:1010E00085052B434D8A0CEA850C4CEA030383806B
:1010F000048389688163028430BC7047028B22F4C8
:1011000000624FF6FF7303EA012111430183704728
:1011100030B4028C22F480720284028C8388B0F88E
:101120001CC02CF0700C2CF0030C0C8844EA0C044E
:1011300022F400728D894FF6FF7C0CEA05252A43C4
:101140004D880CEA05252A43A0F18045B5F5803588
:1011500004D0A0F18045B5F5823518D122F40062A3
:10116000CD890CEA05252A4322F480628D880CEA99
:1011700005252A4323F4805323F400530D8A0CEAF7
:1011800005152B434D8A0CEA051C4CEA03038380AA
:1011900084838968C163028430BC7047828B22F0EB
:1011A000080211438183704730B4028C22F48052CC
:1011B0000284038C8288B0F81CC02CF4E04C2CF420
:1011C000407C0D884FF6FF7404EA052545EA0C0CB7
:1011D00023F400538D8904EA05352B434D8804EA36
:1011E00005352B43A0F18045B5F5803504D0A0F13D
:1011F0008045B5F5823505D122F480420D8A04EA96
:10120000851422438280A0F81CC08968016403848D
:1012100030BC7047828B22F400624FF6FF7303EA02
:101220000121114381837047416370478163704797
:10123000C1637047016470474162704710B402880F
:101240001C4BDFF874C0984213D0604511D0B0F148
:10125000804F0ED0A0F18044B4F5806409D0A0F195
:101260008044B4F5006404D0A0F18044B4F5406437
:1012700003D122F070024C882243A0F18044B4F5DF
:10128000805408D0A0F18044B4F5A05403D022F4D7
:1012900040720C89224302804A68C2620A88028531
:1012A000984201D0604501D1897A0186012181826D
:1012B00010BC7047000001400004014010B5254CEF
:1012C00040F22551204600F0EEF9012837D12046A2
:1012D00000F092FAC1B2204A20484F2930D00DDCEC
:1012E0000A2917D043291BD044291FD0492926D1C8
:1012F000BDE810404FF40051FFF7B9B8532925D08D
:10130000552919D0A0291AD1B2F90000BDE8104022
:10131000FEF769BFB2F90000BDE81040FEF779BFE3
:10132000B2F90000BDE81040FEF789BFB2F9000035
:10133000BDE81040FEF798BF10883238108010BD0D
:10134000BDE810404FF40051FFF793B8BDE81040DE
:10135000FFF722BA004C00401800002000040240B1
:10136000F0B589B0064601210846FFF74FFC012180
:101370001020FFF767FC01218803FFF763FC4FF49F
:10138000C061069102218DF81C1003218DF81D10FB
:1013900000248DF81E4001258DF81F50224F06A90C
:1013A0003846FFF701F8072209213846FFF747F8CA
:1013B00007220A213846FFF742F80296ADF80C40A2
:1013C000ADF80E40ADF81040ADF814400C20ADF86B
:1013D0001200164E02A9304600F0A6F970213046E0
:1013E00000F040F940F22551304600F040F901226A
:1013F00040F22551304600F07AF94FF4A060FFF733
:10140000F9FB25218DF804108DF805508DF8064064
:101410008DF8075001A8FFF7B3FB0121304600F01B
:101420002FF909B0F0BD000000000240001001409B
:1014300070B5424D40F22551284600F034F900289D
:101440006CD0284600F0D8F9C4B221463C4800F0E0
:10145000D7F9A4F1410015284ED2DFE800F03F1182
:101460004D264D4D0B4D364D4D174D4D30234D1DD9
:101470003C4D2B003348B0F90400FEF7CAFE3BE0B8
:101480003048B0F90400FEF7AEFE35E02D48B0F963
:101490000400FEF7D4FE2FE02A48B0F90400FEF75E
:1014A000E3FE29E0FFF758FB26E026488188323129
:1014B000818021E023488188323981801CE04FF40B
:1014C00000512148FEF7D5FF16E04FF400511E48A9
:1014D000FEF7CDFF10E0FFF75FF90DE0194C207823
:1014E00020B100202070207830B901E00120F9E718
:1014F000FFF732FB002060702C468021204600F070
:10150000CBF801280AD040F22551204600F0AFF870
:101510008021204600F0C0F80128F4D10821284697
:1015200000F0BAF8002808D00821284600F09AF800
:101530002846BDE8704000F05FB970BD004800402B
:10154000001001403C000020000402402DE9F04161
:1015500088B0064601210A20FFF758FB01218804C4
:10156000FFF762FB4FF40040069001258DF81C50F8
:1015700003278DF81D7000248DF81E40DFF8A88029
:1015800006A94046FEF710FFE9034046FEF771FF4B
:101590003802069002208DF81C008DF81D708DF821
:1015A0001E408DF81F50214F06A93846FEF7FCFE5D
:1015B000072208213846FEF742FF07220921384654
:1015C000FEF73DFF0296ADF80C40ADF80E40ADF8C9
:1015D0001040ADF814400C20ADF81200144E02A9D2
:1015E000304600F0A1F87021304600F03BF840F2A0
:1015F0002551304600F03BF84FF4A060FFF7FAFAAF
:1016000027218DF804108DF805408DF806508DF8CF
:10161000075001A8FFF7B4FA0121304600F030F876
:1016200008B0BDE8F081000000040240000C024058
:101630000048004070B50446207800280ED0084DC0
:1016400014F8011B284600F0DBF88021284600F042
:1016500023F80028F9D020780028F1D170BD0000CF
:101660000048004001F40072C9430180704740F611
:101670006A12090A012202FA01F1C9430180704786
:10168000002904D0818941F400518181704781890A
:1016900021F40051818170470246002012880A42DD
:1016A00000D00120704710B44FF0000C40F66A12D1
:1016B000C1F3421301F01F02012404FA02F2012BCC
:1016C0000FD0022B10D0838A1A40090A04FA01F1C4
:1016D0000088084012B108B14FF0010C10BC604600
:1016E000704783891A40F0E7038A1A40EDE740F615
:1016F0006A13C1F3421301F01F014FF0010C0CFA01
:1017000001F1012B07D0022B07D014303AB1026847
:101710001143016070470C30F8E71030F6E70268BB
:1017200022EA01010160704730B585B004460D46DC
:10173000208A20F44050E98808432082A08920F4C0
:10174000037020F4A050A9882A8911436A891043A4
:101750000843A081A08A20F44070A9890843A08290
:101760006846FFF77DFAA4F18040B0F5883012D0CA
:10177000A4F18040B0F58A300DD00298A18911F40F
:10178000004F0AD000EBC00101EB001029684900AE
:10179000B0FBF1F009E00398F0E700EBC00101EBCA
:1017A000001029688900B0FBF1F0124AA2FB003159
:1017B000490909010B096FF0180C03FB0CF300EB4E
:1017C0008300A38913F4004F4FF0320307D003EBDB
:1017D000C000A2FB0020C0F34210084306E003EB68
:1017E0000010A2FB0020C0F343100843208105B085
:1017F00030BD00001F85EB518088C0F308007047A2
:10180000C1F3080181807047FEE702E008C8121F9B
:1018100008C1002AFAD170477047002001E001C1D9
:10182000121F002AFBD1704730B4002828D0154978
:1018300000254FF0E0224C68B0F57A7F02D94FF4D2
:101840007A7C00E084460CFB04F1B1F1807F01D387
:101850006FF07F4151619561116941F001011161A2
:10186000116911F0010F02D011F4803FF8D0116915
:1018700021F0010111619561A0EB0C000028DBD182
:1018800030BC7047300000200E4909684843B0F171
:10189000807F01D36FF07F404FF0E021486100234B
:1018A0008B61086940F001000861086910F0010FC0
:1018B00002D010F4803FF8D0086920F001000861E0
:1018C0008B61704730000020FFF70EFBFEF77EFFB4
:1018D000FEF7D2FE4FF4E130FFF742FD4FF4E13066
:1018E000FFF734FE1BA0FFF7A5FE4FF4FA60FFF7E9
:1018F0009BFF1AA0FFF79EFE4FF4FA60FFF794FFDC
:101900001AA0FFF797FE4FF47A70FFF78DFFFFF7ED
:1019100077FAFEF781FFFEF7BFFF012240F2255163
:101920001548FFF7E4FEFEF737FF144E144C002570
:1019300030780128FCD12068401C2060642804D342
:10194000FEF73EFEFEF798FD25600A20FFF76CFFCC
:10195000EEE70000415445310D0A000041542B428E
:101960004C454D4F44453D300D0A000041542B4736
:101970004D520D0A00000000004800403C000020CD
:1019800038000020A4190008000000204C000000CE
:101990000A180008F01900084C0000200404000098
:1019A0001A180008000000000102030401020304E9
:1019B0000607080900000000000000002C010000DC
:1019C000007A030A00000000000000000102030486
:1019D00006070809000000000000000000000000E9
:1019E000000000002C0100000000000000000000CA
:040000050800018965
:00000001FF
