:020000040800F2
:100000007806002031020008F50A00082F090008D0
:10001000810A00081D060008D7160008000000002D
:10002000000000000000000000000000A50D000816
:100030003508000800000000590C0008950E000863
:100040004B0200084B0200084B0200084B0200085C
:100050004B0200084B0200084B0200084B0200084C
:100060004B0200084B0200084B0200084B0200083C
:100070004B0200084B0200084B0200084B0200082C
:100080004B0200084B0200084B0200084B0200081C
:100090004B0200084B0200084B0200084B0200080C
:1000A0004B0200084B0200084B0200084B020008FC
:1000B000010F00084B0200084B0200084B02000829
:1000C0004B0200084B0200084B0200084B020008DC
:1000D0004B020008451300084B0200085D1400089D
:1000E0004B0200084B0200084B0200084B020008BC
:1000F0004B0200084B0200084B0200084B020008AC
:100100004B0200084B0200084B0200084B0200089B
:10011000E11200084B0200084B0200084B020008E5
:100120004B0200084B0200084B0200084B0200087B
:100130004B0200084B0200084B0200084B0200086B
:100140004B0200084B0200084B0200084B0200085B
:100150004B0200084B0200084B0200084B0200084B
:100160004B0200084B0200084B0200084B0200083B
:100170004B0200084B0200084B0200084B0200082B
:100180004B0200084B02000800F002F800F041F8B2
:100190000AA090E8000C82448344AAF10107DA45E2
:1001A00001D100F036F8AFF2090EBAE80F0013F0F3
:1001B000010F18BFFB1A43F001031847D0150000C8
:1001C000F0150000103A24BF78C878C1FAD8520759
:1001D00024BF30C830C144BF04680C6070470000C1
:1001E0000023002400250026103A28BF78C1FBD840
:1001F000520728BF30C148BF0B607047642900F028
:100200007F80002070471FB501F0BAFA1FBD10B5FE
:1002100010BD00F052F91146FFF7F5FF01F096FA14
:1002200000F070F903B4FFF7F2FF03BC00F074F9BB
:100230000948804709480047FEE7FEE7FEE7FEE77A
:10024000FEE7FEE7FEE7FEE7FEE7FEE704480549B6
:10025000054A064B70470000990E00088901000806
:100260007800002078060020780200207802002024
:100270000FB41CB5074B06AA7B446946009005984D
:1002800000F003F90020694600F012F91CBC5DF88B
:1002900014FB0000350200002DE9F0410E46044633
:1002A000002020622046E168884730B3252805D029
:1002B000D4E901219047206A401CF2E7E16820461A
:1002C00000278847050018D0A5F14100192802D859
:1002D00020354FF400673246294620462760FFF755
:1002E0008DFF40B1012804D0F61D26F00706083620
:1002F000D8E7361DD6E72846DAE7206ABDE8F08160
:100300002DE9F0410646002410687529314616A5EE
:1003100010D0AFF30080002802DA404213A507E0B6
:1003200031688A0701D512A502E0490704D511A555
:10033000012401E0AFF3008000210A2206F1240726
:1003400009E0B0FBF2FCB0FBF2F302FB1C00303022
:1003500078541846491C0028F3D123462A463046D3
:10036000BDE8F04100F032B8000000002D000000B0
:100370002B000000200000004FF0000200B51346E3
:1003800094469646203922BFA0E80C50A0E80C50B5
:10039000B1F12001BFF4F7AF090728BFA0E80C5066
:1003A00048BF0CC05DF804EB890028BF40F8042B5F
:1003B00008BF704748BF20F8022B11F0804F18BFCC
:1003C00000F8012B70477047704770472DE9F047E0
:1003D0000D4699469246044600F1240801688806B5
:1003E00004D5E06921F01001216000E00120A8425D
:1003F00001DD471B00E00027A1697A1902EB090023
:10040000081AA0612078C00602D42046AFF300800D
:10041000002608E0D4E901211AF806009047206A76
:10042000401C761C20624E45F4DB2078C0060AD5BD
:100430002046AFF3008006E0D4E901213020904748
:10044000206A401C2062381EA7F10107F4DC07E097
:10045000D4E9012118F805009047206A401C206269
:10046000281EA5F10105F3DC2046AFF300802078BB
:10047000000602D50220BDE8F0870120FBE700005E
:1004800001694A1C02610878704700B58FB0CDE958
:1004900001310021059105497944CDE90310114648
:1004A0006846FFF7F9FE0FB000BD0000E5FFFFFF53
:1004B0000A6802F8010B0A607047754600F028F8D8
:1004C000AE4605006946534620F00700854618B041
:1004D00020B5FFF7BBFEBDE820404FF000064FF00F
:1004E00000074FF000084FF0000B21F00701AC4669
:1004F000ACE8C009ACE8C009ACE8C009ACE8C00988
:100500008D4670470446AFF300802046FFF78AFE11
:10051000004870471400002001491820ABBEFEE7D8
:10052000260002007047000000B587B001210A20B4
:1005300000F094FB0121880400F0A0FB01208DF85D
:10054000180000208DF81A004FF400400590032099
:100550008DF8190005A92E4800F06DF94FF40041FF
:100560002B4800F0DEF902208DF8180000208DF8ED
:100570001A004FF48070059003208DF8190005A92A
:10058000244800F058F902208DF8180001208DF859
:100590001B004002059005A91E4800F04CF94FF4DD
:1005A000E13001900020ADF810000C20ADF80E00F5
:1005B0000020ADF80C00ADF80A00ADF8080001A964
:1005C000154801F015F807220821124800F07BF9C0
:1005D000072209210F4800F076F9012240F2255147
:1005E0000D4800F0DFFF27208DF8000001208DF876
:1005F000030000208DF801008DF80200684600F02D
:100600007BFA0121044800F08AFF07B000BD00001A
:1006100000040240000C02400048004000BFFEE71A
:1006200010B5022000F0ECF9022000F009FA0220D7
:1006300000F0A2F9022000F0C1F910BD10B50120B0
:1006400000F0DEF9012000F0FBF9012000F094F940
:10065000012000F0B3F910BD10B50446214608484A
:1006600000F0C6FD2146064800F0C4FD21460448BE
:1006700000F0C2FD2146024800F0C0FD10BD0000A0
:100680000004004010B500F083F8002404E00120CD
:1006900001F041F8601CC4B24FF400410B4800F077
:1006A00035F9012801D1642CF1DB002404E001209C
:1006B00001F031F8601CC4B24FF40041034800F06F
:1006C00025F908B9642CF2DB10BD000000100240CF
:1006D00010B5002404E0012001F01DF8601CC4B234
:1006E0004FF400410F4800F011F9012801D1642CAA
:1006F000F1DB002404E0012001F00DF8601CC4B21D
:100700004FF40041074800F001F908B9642CF2DB0E
:10071000232001F000F84FF40041024800F0F6F801
:1007200010BD0000001002401CB50121102000F097
:1007300095FA01208DF8040000208DF806004FF492
:100740000040009003208DF805006946014800F044
:1007500072F81CBD0010024010B500F02DF84FF4E7
:1007600000410A4800F0DDF84FF40041074800F06E
:10077000D6F8142000F0B1FF4FF40041034800F018
:10078000D0F81E2000F0C7FF10BD0000001002408E
:100790001CB500208DF804004FF4004000900120AB
:1007A0008DF8070003208DF805006946014800F028
:1007B00042F81CBD001002401CB501208DF8040059
:1007C00000208DF806004FF40040009003208DF8C3
:1007D00005006946014800F02EF81CBD00100240DB
:1007E0002DE9F0410446FFF7B7FFFFF74BFF002567
:1007F00000260EE0002706E06806050EFFF768FFFA
:100800000543781CC7B2082FF6DBA5550025701CE0
:10081000C6B2052EEEDB207861780844A178084442
:10082000E17808442179884202D10120BDE8F081B5
:100830000020FBE77047F0B50A46002100230024A2
:1008400000BF3DE0012505FA01F3156805EA030440
:100850009C4234D105684F000326BE40B543056075
:1008600015794E00B5400668354305601579012DB0
:1008700002D01579022D16D185684F000326BE409F
:10088000B543856055794E00B5408668354385602F
:10089000456801268E40B5434560456896798E408F
:1008A000B6B235434560C5684F000326BE40B54328
:1008B000C560D5794E00B540C6683543C560491C52
:1008C0001029BFD3F0BDF0B5002300244D07ED0E75
:1008D00002FA05F3CE1000F1200555F826504E0718
:1008E000F70E0F26BE40B543CF1000F1200646F8A4
:1008F0002750CE1000F1200555F8265045EA030494
:10090000CE1000F1200545F82640F0BD024600203B
:1009100013690B400BB1012000E0002070474183B8
:1009200070470183704742694A404261704700BF87
:10093000FEE700001CB50121022000F08FF9012024
:100940008DF8040000208DF806004FF40050009050
:1009500003208DF8050069460148FFF76CFF1CBDB8
:100960000004024010B54FF400510248FFF7DBFFCE
:1009700010BD00000004024010B504462CB94FF42D
:1009800040510D48FFF7CBFF14E0022C08D12103A2
:100990000948FFF7C6FFE1020748FFF7C0FF09E07B
:1009A000012C07D161030448FFF7B9FF2103024876
:1009B000FFF7B7FF10BD0000000C024010B5044661
:1009C0002CB94FF440410D48FFF7A9FF14E0012C6A
:1009D00008D1A1030948FFF7A4FFE1030748FFF787
:1009E0009EFF09E0022C07D161030448FFF797FF3F
:1009F000A1030248FFF795FF10BD0000000C024064
:100A000010B5044624B930210C48FFF788FF14E0E4
:100A1000022C08D110210948FFF783FF2021074845
:100A2000FFF77DFF09E0012C07D110210348FFF7F4
:100A300076FF20210148FFF774FF10BD001002402F
:100A400010B5044624B90C210C48FFF768FF14E0E8
:100A5000022C08D108210948FFF763FF0421074849
:100A6000FFF75DFF09E0012C07D108210348FFF7DC
:100A700056FF04210148FFF754FF10BD001002404B
:100A800000BFFEE71CB501211B2000F0E7F80120A4
:100A90008DF8040000208DF80600C020009003208F
:100AA0008DF8050069460F48FFF7C5FE032000904A
:100AB00069460D48FFF7BFFE4FF47040009069464D
:100AC0000A48FFF7B8FE3C20009069460848FFF747
:100AD000B2FEC0210348FFF724FF03210248FFF7BD
:100AE00020FF1CBD0000024000040240000C024038
:100AF000001002407047000070B5002100230F2253
:100B0000C4781CB3174C246804F4E064C4F5E064B2
:100B1000C4F30721C1F10404E3B20A4144789C40C4
:100B2000E1B28478144021430C07210E0E4C057865
:100B30006155047804F01F050124AC4005786D115F
:100B4000AD0005F1E025C5F8004109E0047804F0A6
:100B50001F050124AC40054D0678761145F8264066
:100B600070BD00000CED00E000E400E080E100E07A
:100B700002490143024A1160704700000000FA0573
:100B80000CED00E000B58BB00121032000F066F809
:100B90000121022000F072F802208DF828000020C8
:100BA0008DF82A00C020099003208DF8290009A99A
:100BB0002648FFF740FE0320099009A92448FFF7C3
:100BC0003AFE0020ADF82000ADF81A00632007902F
:100BD00042F2CF00ADF8180006A91E4800F010FB45
:100BE00001211C4800F0C1F96020ADF8040000208C
:100BF000ADF810000120ADF806001E20039001A9F9
:100C0000144800F0D9F901A9124800F013FA01A91B
:100C1000104800F061FA01A90E4800F0ADFA022276
:100C200006210A48FFF74FFE022207210748FFF777
:100C30004AFE022200210648FFF745FE022201215A
:100C40000348FFF740FE0BB000BD0000000002406B
:100C500000040240000400407047000029B1064A29
:100C600012680243044B1A6004E0034A126882438C
:100C7000014B1A60704700003038024029B1064A23
:100C800012680243044B1A6004E0034A126882436C
:100C9000014B1A60704700004038024029B1064AF3
:100CA00012680243044B1A6004E0034A126882434C
:100CB000014B1A607047000044380240F0B5002133
:100CC00000220024022500260223324F3F6807F04D
:100CD0000C0121B1042905D0082937D105E02E4F98
:100CE000076036E02D4F076033E02A4F3F1F3F6813
:100CF000C7F38056274F3F1F3F6807F03F036EB191
:100D0000264FB7FBF3F7DFF88CC0ACF1040CDCF82E
:100D100000C0CCF3881C07FB0CF40CE01E4FB7FBA3
:100D2000F3F7DFF870C0ACF1040CDCF800C0CCF3D2
:100D3000881C07FB0CF4174F3F1F3F68C7F30147A0
:100D40007F1C7D00B4FBF5F7076002E0124F0760DF
:100D500000BF00BF0F4F3F6807F0F0010909104FB7
:100D60007A5C0768D74047600A4F3F6807F4E05154
:100D7000890A0B4F7A5C4768D7408760054F3F6808
:100D800007F46041490B064F7A5C4768D740C7605B
:100D9000F0BD0000083802400024F40000127A0080
:100DA00000000020704700000CB50020019000906A
:100DB0003448006840F480303249086000BF314850
:100DC000006800F4003000900198401C01900098E9
:100DD00018B90198B0F5A04FF1D12A48006800F485
:100DE000003010B10120009001E000200090009838
:100DF000012846D123484030006840F08050214906
:100E0000403108602048006840F440401E490860B6
:100E10001C48083000681B49083108600846006813
:100E200040F4004008600846006840F4A0500860A4
:100E30001648091F0860081F006840F08070091FED
:100E4000086000BF0F48006800F000700028F9D06B
:100E500040F205700E4908600A480830006820F02A
:100E600003000849083108600846006840F00200A5
:100E7000086000BF03480830006800F00C00082834
:100E8000F8D10CBD00380240007000400854400703
:100E9000003C02407047000010B51548006840F45F
:100EA0007000134908601348006840F001001149C0
:100EB000086000200F49083108600E4800680E499C
:100EC00008400C4908600D48091D0860081F0068AB
:100ED00020F48020091F0860002006490C310860BA
:100EE000FFF762FF4FF0006001498039086010BDD4
:100EF00088ED00E000380240FFFFF6FE10300024CD
:100F000000B58BB00121880700F03BF801281BD108
:100F1000FFF728FD002009900A90202101A8FFF783
:100F20002BFA09A8FFF75CFC9DF826309DF82420D9
:100F300006A101A8FFF79CF901A800F079FA0121A8
:100F4000880700F00FF800BF0BB000BD4448203DFB
:100F50002025642525202C2054656D203D20256406
:100F60000D0A0000CA430282704721B1028842F094
:100F70000102028004E002884FF6FE731A400280EC
:100F8000704730B50246002000230024158A05EA88
:100F90000103958905EA010413B10CB1012000E0B9
:100FA000002030BD1AB183890B43838102E083891D
:100FB0008B4383817047000070B50024002200231A
:100FC000058C4FF6FE7635400584028C8388048BB1
:100FD0004FF68F752C40B51E2C400D882C43751E86
:100FE0002A408D892A434D882A43104DA84202D0B9
:100FF0000F4DA84213D14FF6F7752A40CD892A43E9
:101000004FF6FB752A408D882A434FF6FF652B402B
:101010004FF6FF552B400D8A2B434D8A2B4383807F
:1010200004838D684563028470BD000000000140A8
:101030000004014070B5002400220023058C4FF607
:10104000EF7635400584028C8388048B48F6FF7563
:101050002C404FF6FF452C400D884FF6FF7606EAF0
:1010600005252C434FF6DF752A408D8906EA0515C4
:101070002A434D8806EA05152A43154DA84202D099
:10108000144DA8421DD14FF67F752A40CD894FF6E9
:10109000FF7606EA05152A434FF6BF752A408D886C
:1010A00006EA05152A434FF6FF352B404FF2FF7530
:1010B0002B400D8A06EA85052B434D8A06EA8505F5
:1010C0002B43838004838D688563028470BD000098
:1010D000000001400004014070B5002400220023FC
:1010E000058C4FF6FF6635400584028C8388848B1F
:1010F0004FF68F752C404FF6FC752C400D882C4315
:101100004FF6FF552A408D894FF6FF7606EA0525F2
:101110002A434D8806EA05252A43154DA84202D0E8
:10112000144DA8421DD14FF2FF752A40CD894FF6CC
:10113000FF7606EA05252A434FF6FF352A408D88BB
:1011400006EA05252A434EF6FF752B404DF6FF753E
:101150002B400D8A06EA05152B434D8A06EA051534
:101160002B43838084838D68C563028470BD000037
:10117000000001400004014070B50022002300245B
:10118000058C4EF6FF7635400584038C8488828B6F
:1011900048F6FF752A404FF6FF452A400D884FF666
:1011A000FF7606EA05252A434DF6FF752B408D890B
:1011B00006EA05352B434D8806EA05352B430A4DD3
:1011C000A84202D0094DA84208D14BF6FF752C4029
:1011D0000D8A4FF6FF7606EA85152C4384808283BC
:1011E0008D680564038470BD000001400004014067
:1011F0004163704781637047C16370470164704702
:1012000000220288184B98420ED0184B98420BD0FF
:10121000B0F1804F08D0164B984205D0154B98423C
:1012200002D0154B984204D14FF68F731A404B8869
:101230001A43124B984207D0114B984204D04FF6F4
:10124000FF431A400B891A4302804B68C3620B8824
:101250000385054B984202D0044B984201D18B7A0A
:10126000038601238382704700000140000401408F
:101270000004004000080040000C00400010004046
:10128000001400401FB501210846FFF7F7FC0020BD
:10129000ADF80C00ADF8060047F22F50029042F274
:1012A000CF00ADF8040001A94FF08040FFF7A8FF80
:1012B000012211469007FFF775FE1C208DF80000F3
:1012C00001208DF803008DF801008DF802006846BA
:1012D000FFF712FC01218807FFF747FE1FBD000042
:1012E00010B540F22551154800F032F9012824D1FB
:1012F000124800F0E7F90446012C02D1FFF79EF9ED
:1013000015E0022C02D1FFF78BF910E0032C0ED16F
:101310000B4800780A300A490870084600786428AB
:1013200001DD0020087006480078FFF795F940F2CB
:101330002551024800F0E4F800BF10BD004C004009
:101340001000002010B540F225510D4800F000F9C2
:10135000012814D10A4800F0B5F9C4B22146084862
:1013600000F0B5F900BF8021054800F0E4F801283D
:10137000F9D140F22551024800F0C2F800BF10BD7B
:101380000010014000B587B001210846FFF766FC58
:1013900001211020FFF782FC02208DF818000020A8
:1013A0008DF81A004FF4C060059003208DF81900E5
:1013B00005A91D48FFF73FFA4FF4E13001900020E6
:1013C000ADF810000C20ADF80E000020ADF80C00B8
:1013D000ADF80A00ADF8080001A9144800F008F9BA
:1013E000012240F22551114800F0DCF825208DF84B
:1013F000000001208DF803008DF8010000208DF819
:1014000002006846FFF778FB072209210648FFF72C
:101410005AFA07220A210448FFF755FA0121034826
:1014200000F07DF807B000BD000002400010014050
:1014300010B504460BE014F8011B074800F047F90B
:1014400000BF8021044800F076F80128F9D1207807
:101450000028F0D110BD00000010014010B540F28E
:101460002551244800F074F8012842D1214800F0A9
:1014700029F90446412C02D1FFF7E0F828E0422C7C
:1014800002D1FFF7CDF823E0432C21D02B2C0FD134
:10149000194800780A30184908700846007864280E
:1014A00001DD0020087014480078FFF7D5F80FE040
:1014B0002D2C0DD1104800780A380F4908700846C5
:1014C000007808B9642008700B480078FFF7C4F86A
:1014D00021460A4800F0FBF800BF8021074800F0D1
:1014E0002AF80128F9D140F22551024800F008F805
:1014F00000BF10BD00480040100000200010014057
:1015000010B50022002340F66A14A14200D100BFAA
:101510000A1201249440A3B2DC43048010BD21B11F
:10152000828942F40052828104E082894DF6FF7381
:101530001A408281704702460020B1F5007F00D139
:1015400000BF13880B400BB1012000E00020704762
:1015500070B50246002400230025002040F66A16DC
:10156000B14200D100BFC1F3421501F01F030126B3
:1015700006FA03F3012D02D19689334006E0022DCD
:1015800002D1168A334001E0968A33400C120126BC
:1015900006FA04F41688344013B10CB1012000E0BF
:1015A000002070BDF0B50346002400260025002071
:1015B00040F66A17B94200D100BF1846C1F3421481
:1015C00001F01F06012707FA06F5012C01D10C30A6
:1015D00004E0022C01D1103000E014301AB1076889
:1015E0002F43076002E00768AF430760F0BD0000CB
:1015F0002DE9FF4705460E460024A14600BFA04640
:10160000B08900B100BF2C8A24F44054F088044310
:101610002C82AC8941F20C608443B0883189084344
:10162000718908430443AC81AC8A24F44074B089C6
:101630000443AC826846FFF741FB2048854202D054
:101640001F48854202D1DDF80C9001E0DDF80890DA
:10165000A88900F4004040B109EBC90000EB091073
:1016600031684900B0FBF1F707E009EBC90000EB76
:10167000091031688900B0FBF1F76420B7FBF0F086
:1016800004012009642101FB1078A88900F40040BE
:1016900040B1322000EBC800B0FBF1F000F00700D1
:1016A000044308E0322000EB08106421B0FBF1F0A5
:1016B00000F00F0004432C81BDE8FF8700100140BB
:1016C0000014014001468888C0F308007047C1F348
:1016D00008028280704700BFFEE700214FF0E02241
:1016E000116140F6412141430122C2EBC1014FF09B
:1016F000E0225161002191610121116100BF4FF091
:10170000E021096901F480310029F8D000214FF06F
:10171000E0221161704700214FF0E0221161C0EB1F
:10172000C00101EB4101491E51610021916101217C
:10173000116100BF4FF0E021096901F480310029F7
:10174000F8D000214FF0E022116170474FF4A06003
:10175000FFF70EFAFEF7E8FEFFF7ECF8FFF712FED0
:10176000FFF790F9FFF70EFA04480078FEF774FFD0
:10177000FEF7DAFFFFF786FD00BFFEE7100000204E
:101780004FF04070E1EE100A70470000AC170008FF
:101790000000002014000000C4010008C017000869
:1017A0001400002064060000E001000800000000B2
:1017B00001020304010203040607080932000000C5
:040000050800018965
:00000001FF
