:020000040800F2
:1000000090060020290200081B07000823050008AD
:1000100025050008B5030008B10C00080000000029
:10002000000000000000000000000000910800082F
:100030006104000800000000A5070008710900081D
:10004000430200084302000843020008430200087C
:10005000430200084302000843020008430200086C
:10006000430200084302000843020008430200085C
:10007000430200084302000843020008430200084C
:10008000430200084302000843020008430200083C
:10009000430200084302000843020008430200082C
:1000A000430200084302000843020008430200081C
:1000B000430200084302000843020008430200080C
:1000C00043020008430200084302000843020008FC
:1000D000430200084302000843020008150A000812
:1000E00043020008430200084302000843020008DC
:1000F00043020008430200084302000843020008CC
:1001000043020008430200084302000843020008BB
:1001100043020008430200084302000843020008AB
:10012000430200084302000843020008430200089B
:10013000430200084302000843020008430200088B
:10014000430200084302000843020008430200087B
:10015000430200084302000843020008430200086B
:10016000430200084302000843020008430200085B
:10017000430200084302000843020008430200084B
:10018000430200084302000800F002F800F03CF8C7
:100190000AA090E8000C82448344AAF10107DA45E2
:1001A00001D100F031F8AFF2090EBAE80F0013F0F8
:1001B000010F18BFFB1A43F001031847F80B0000AA
:1001C000180C0000103A24BF78C878C1FAD852073A
:1001D00024BF30C830C144BF04680C6070470000C1
:1001E0000023002400250026103A28BF78C1FBD840
:1001F000520728BF30C148BF0B6070471FB500F0E1
:10020000D3FD1FBD10B510BD00F031F81146FFF74A
:10021000F5FF00F07FFD00F04FF803B4FFF7F2FFA9
:1002200003BC00F057F80000094880470948004720
:10023000FEE7FEE7FEE7FEE7FEE7FEE7FEE7FEE796
:10024000FEE7FEE704480549054A064B70470000F3
:10025000A5090008890100089000002090060020F0
:10026000900200209002002070477047704775464A
:1002700000F02CF8AE4605006946534620F0070012
:10028000854618B020B5FFF7DDFFBDE820404FF0F0
:1002900000064FF000074FF000084FF0000B21F070
:1002A0000701AC46ACE8C009ACE8C009ACE8C0093D
:1002B000ACE8C0098D46704710B50446AFF3008026
:1002C0002046BDE81040FFF7A8BF00000048704777
:1002D0003000002001491820ABBEFEE726000200D6
:1002E00070470000F0B589B001210A2000F05CFAE7
:1002F0000121880400F066FA01268DF81C600024B4
:100300008DF81E40F003069003258DF81D50264FF2
:1003100006A9384600F0A5F8F103384600F0FFF8CA
:1003200002208DF81C008DF81E40280206908DF8E2
:100330001D501E4D06A9284600F093F84FF4E130F9
:100340000290ADF814400C20ADF81200ADF810404A
:10035000ADF80E40ADF80C40154F02A9384600F03C
:1003600037FC012240F22551384600F013FC2720CB
:100370008DF804008DF807608DF805408DF8064073
:1003800001A800F0CBF90121384600F0CCFB072290
:100390000921284600F0B0F807220821284600F07D
:1003A000ABF809B0F0BD000000040240000C0240B0
:1003B00000480040FEE710B504462146002000F04A
:1003C000B3F82146012000F0AFF8604201B20C46BC
:1003D000022000F0A9F82146BDE81040032000F0FB
:1003E000A3B870B50546694209B20C46002000F07A
:1003F0009BF82146012000F097F82946022000F0E2
:1004000093F82946BDE87040032000F08DB810B580
:10041000404201B20C46002000F086F8214601203F
:1004200000F082F82146022000F07EF82146BDE867
:100430001040032000F078B810B504462146002093
:1004400000F072F82146012000F06EF821460220EB
:1004500000F06AF82146BDE81040032000F064B8BF
:1004600070472DE9F00100220126032706FA02FC5D
:100470000B6803EA0C03634538D10568530007FA9B
:1004800003F4A54305600D79D0F800809D4045EA4E
:10049000080505600D79012D01D0022D17D1856861
:1004A000A54385604D79D0F808809D4045EA080550
:1004B0008560456825EA0C0CC0F804C0D0F804C07B
:1004C0008D799540ADB24CEA050CC0F804C0D0F867
:1004D0000CC02CEA040CC0F80CC091F807C00CFA50
:1004E00003F3D0F80CC043EA0C03C360521C102A7B
:1004F000BCD3BDE8F00170474B07DB0E9A40C9083A
:1005000000EB8100016A4FF00F0C0CFA03F39943E2
:100510000162016A114301627047418370470183A0
:100520007047FEE7FEE700002DE9F0410446B1F513
:100530007A7F01DD4FF47A7111F57A7F00DA69492B
:10054000694D6A4E6A4F00290BD076DD1FFA81F89B
:10055000002C49D0012C50D0022C57D0032C4BD169
:100560005FE0ACB1012C21D0022C2DD0032C6FD137
:100570004FF480413846FFF7D0FF4FF40041384632
:10058000FFF7CBFF3046BDE8F041002100F040BA54
:1005900010212846FFF7C1FF20212846FFF7BDFFA5
:1005A0003046BDE8F041002100F02CBA0821284671
:1005B000FFF7B3FF04212846FFF7AFFF3046BDE841
:1005C000F041002100F020BA4FF480513846FFF787
:1005D000A4FF4FF400513846FFF79FFF3046BDE8B7
:1005E000F041002100F012BA10212846FFF797FFD2
:1005F00020212846FFF791FF52E008212846FFF707
:100600008EFF04212846FFF788FF49E04FF4805110
:100610003846FFF784FF4FF400513846FFF77DFF5F
:100620003EE04FF480413846FFF779FF4FF4004138
:100630003846FFF772FF33E0FFE748421FFA80F8C1
:100640003CB1012C0ED0022C15D0032C28D11DE07A
:1006500045E010212846FFF760FF20212846FFF7DC
:100660005EFF1DE008212846FFF757FF04212846BA
:10067000FFF755FF14E04FF480513846FFF74DFF68
:100680004FF400513846FFF74AFF09E04FF480412C
:100690003846FFF742FF4FF400413846FFF73FFF6F
:1006A0005CB1012C0FD0022C13D0032C17D1414682
:1006B0003046BDE8F04100F0ABB941463046BDE8F8
:1006C000F04100F09FB941463046BDE8F04100F0EE
:1006D0009BB941463046BDE8F04100F097B9BDE80E
:1006E000F081000018FCFFFF0010024000040040F1
:1006F000000C024010B500210846FFF715FF00214D
:100700000120FFF711FF00210220FFF70DFF00215C
:10071000BDE810400320FFF707BF704710B44FF04B
:100720000F0CC27801240178002A23D0174A1268DE
:1007300002F4E062C2F5E062C2F30722C2F10403F0
:100740002CFA02FC42789A40837803EA0C031A439D
:10075000120101F1E02181F80024007800F01F016E
:1007600004FA01F14009800000F1E020C0F8001116
:1007700010BC704701F01F0004FA00F0490989001D
:1007800001F1E021C1F8800110BC70470CED00E0E0
:10079000034940F0FD7040F0806008607047000041
:1007A0000CED00E070470000054A002903D01168F5
:1007B000084310607047116821EA0000106070471C
:1007C00030380240054A002903D011680843106000
:1007D0007047116821EA00001060704740380240FD
:1007E00030B4DFF89CC0DCF8001001F00C01254D9E
:1007F000002923D06C10042922D0082922D00560BA
:10080000DCF8001001F0F00109091F4B595C026887
:1008100022FA01F14160DCF8002002F4E052920A71
:100820009A5C21FA02F28260DCF8002002F4604255
:10083000520B9A5CD140C16030BC70470560DFE765
:100840000460DDE7114A1168C1F38053116801F0BB
:100850003F0133B1B4FBF1F11368C3F3881359437B
:1008600005E0B5FBF1F11368C3F38813594312682F
:10087000C2F30142521C5200B1FBF2F10160BFE72A
:10088000083802400024F400000000200438024030
:100890007047000082B00022019200922749086848
:1008A00040F480300860086800F40030009001983F
:1008B000401C0190009818B90198B0F5A04FF2D1F2
:1008C000086810F4003F02D00120009000E0009280
:1008D0000098012830D11A48026842F08052026024
:1008E0001848026842F440420260174802680260F9
:1008F000026842F400420260026842F4A0520260C0
:10090000021F124B13600A6842F080720A600A6884
:1009100012F0007FFBD00E4A40F2057111600168B1
:1009200021F003010160016841F0020101600168EA
:1009300001F00C010829FAD102B0704700380240DA
:100940004038024000700040083802400854400718
:10095000003C02404FF0E021042804D0086920F058
:10096000040008617047086940F00400086170479E
:100970007047000010B56FF00400FFF7EBFF06486A
:1009800006490068B0FBF1F0054908604FF47A723F
:100990005043486010BD00001000002000127A0093
:1009A0002400002010B51148016841F47001016075
:1009B0000F48016841F0010101600E4A00211160F9
:1009C000026822F4102222F080720260031D0A4A9B
:1009D0001A60026822F48022026008480160FFF772
:1009E00059FF07494FF00060086010BD88ED00E036
:1009F0000038024008380240103000240C38024011
:100A000008ED00E04163704781637047C163704740
:100A10000164704770B5304C40F22551204600F01B
:100A200095F8012856D1204600F03AF9C5B22B4E70
:100A30002946304600F038F98021304600F07FF832
:100A40000128F9D1082D3ED2DFE805F03D040D1054
:100A500019222B342248008800EB8000400000B2AD
:100A6000FFF7BFFC2FE0FFF745FE2CE01C48008895
:100A700000EB8000400000B2FFF79DFC23E0184827
:100A8000008800EB8000400000B2FFF7D5FC1AE0C0
:100A90001348008800EB8000400000B2FFF7B7FC6D
:100AA00011E00F4908680A30086064280BDD6420F3
:100AB000086008E00A4908680A2802DA002008608D
:100AC00001E00A3808602046BDE8704040F2255138
:100AD00000F020B870BD0000004800400010014048
:100AE0002C00002070B50446207800280ED0084D58
:100AF00014F8011B284600F0D7F88021284600F0A2
:100B00001EF80128F9D120780028F1D170BD00002D
:100B10000048004040F66A12090A012202FA01F177
:100B2000C94301807047002904D0818941F40051F4
:100B300081817047818921F400518181704702468B
:100B4000002012880A4200D00120704710B44FF0F4
:100B5000000C40F66A12C1F3421301F01F02012497
:100B600004FA02F2012B0FD0022B10D0838A1A4014
:100B7000090A04FA01F10088084012B108B14FF0E7
:100B8000010C10BC6046704783891A40F0E7038A65
:100B90001A40EDE740F66A13C1F3421301F01F015A
:100BA0004FF0010C0CFA01F1012B07D0022B07D0FA
:100BB00014303AB102681143016070470C30F8E715
:100BC0001030F6E7026822EA010101607047000078
:100BD00030B585B004460D46208A20F44050E9889F
:100BE00008432082A08920F4037020F4A050A98833
:100BF0002A8911436A8910430843A081A08A20F4FE
:100C00004070A9890843A0826846FFF7E9FDA4F176
:100C10008040B0F5883012D0A4F18040B0F58A3021
:100C20000DD00298A18911F4004F0AD000EBC00149
:100C300001EB001029684900B0FBF1F009E00398CE
:100C4000F0E700EBC00101EB001029688900B0FB60
:100C5000F1F0124AA2FB0031490909010B096FF0BA
:100C6000180C03FB0CF300EB8300A38913F4004F73
:100C70004FF0320307D003EBC000A2FB0020C0F30B
:100C80004210084306E003EB0010A2FB0020C0F373
:100C900043100843208105B030BD00001F85EB5193
:100CA0008088C0F308007047C1F308018180704755
:100CB000FEE7000030B4002828D0154900254FF089
:100CC000E0224C68B0F57A7F02D94FF47A7C00E0DC
:100CD00084460CFB04F1B1F1807F01D36FF07F41BA
:100CE00051619561116941F001011161116911F0C2
:100CF000010F02D011F4803FF8D0116921F00101F9
:100D000011619561A0EB0C000028DBD130BC70476D
:100D100024000020FFF72EFE4FF4A060FFF738FDFF
:100D2000FFF7E0FA10A0FFF7DDFE4FF4FA70FFF7CF
:100D3000C1FF4FF400510E48FFF7F1FB0DA0FFF784
:100D4000D1FE4FF4FA70FFF7B5FF0EA0FFF7CAFE11
:100D50004FF4FA70FFF7AEFF0FA0FFF7C3FE4FF49A
:100D6000FA70FFF7A7FFFEE7415445310D0A000076
:100D70000004024041542B424C454D4F44453D39FF
:100D80000D0A000041542B424C454E414D453D4417
:100D900057510D0A0000000041542B424C454D4F65
:100DA00044453D300D0A00004FF04070E1EE100A5E
:100DB00070470000D40D0008000000203000000043
:100DC000C4010008040E0008300000206006000086
:100DD000E001000800000000010203040102030416
:100DE00006070809007A030A00000000000000005E
:100DF00001020304060708090000000000000000CB
:040E000000000000EE
:040000050800018965
:00000001FF
